{
	"data": {
		"bytecode": {
			"linkReferences": {},
			"object": "608060405234801561000f575f80fd5b5060405161159138038061159183398181016040528101906100319190610155565b815f806101000a81548173ffffffffffffffffffffffffffffffffffffffff021916908373ffffffffffffffffffffffffffffffffffffffff1602179055508060015f6101000a81548173ffffffffffffffffffffffffffffffffffffffff021916908373ffffffffffffffffffffffffffffffffffffffff1602179055503360045f6101000a81548173ffffffffffffffffffffffffffffffffffffffff021916908373ffffffffffffffffffffffffffffffffffffffff1602179055505050610193565b5f80fd5b5f73ffffffffffffffffffffffffffffffffffffffff82169050919050565b5f610124826100fb565b9050919050565b6101348161011a565b811461013e575f80fd5b50565b5f8151905061014f8161012b565b92915050565b5f806040838503121561016b5761016a6100f7565b5b5f61017885828601610141565b925050602061018985828601610141565b9150509250929050565b6113f1806101a05f395ff3fe608060405234801561000f575f80fd5b506004361061009c575f3560e01c80638da5cb5b116100645780638da5cb5b146101465780639cd441da146101645780639d7de6b314610180578063dc5fa6c51461019c578063e4f1f70a146101ba5761009c565b80630fc63d10146100a057806319e36f3b146100be57806341976e09146100dc5780635f64b55b1461010c5780638014a7aa1461012a575b5f80fd5b6100a86101d6565b6040516100b59190610e59565b60405180910390f35b6100c66101f9565b6040516100d39190610e8a565b60405180910390f35b6100f660048036038101906100f19190610ed1565b6101ff565b6040516101039190610e8a565b60405180910390f35b61011461033b565b6040516101219190610e59565b60405180910390f35b610144600480360381019061013f9190610f26565b610360565b005b61014e6105e0565b60405161015b9190610e59565b60405180910390f35b61017e60048036038101906101799190610f51565b610605565b005b61019a60048036038101906101959190610f51565b610854565b005b6101a4610af2565b6040516101b19190610e8a565b60405180910390f35b6101d460048036038101906101cf9190610f26565b610af8565b005b5f8054906101000a900473ffffffffffffffffffffffffffffffffffffffff1681565b60035481565b5f805f9054906101000a900473ffffffffffffffffffffffffffffffffffffffff1673ffffffffffffffffffffffffffffffffffffffff168273ffffffffffffffffffffffffffffffffffffffff160361027d57600254670de0b6b3a764000060035461026c9190610fbc565b610276919061102a565b9050610336565b60015f9054906101000a900473ffffffffffffffffffffffffffffffffffffffff1673ffffffffffffffffffffffffffffffffffffffff168273ffffffffffffffffffffffffffffffffffffffff16036102fb57600354670de0b6b3a76400006002546102ea9190610fbc565b6102f4919061102a565b9050610336565b6040517f08c379a000000000000000000000000000000000000000000000000000000000815260040161032d906110b4565b60405180910390fd5b919050565b60015f9054906101000a900473ffffffffffffffffffffffffffffffffffffffff1681565b5f61037082600354600254610d78565b90505f81116103b4576040517f08c379a00000000000000000000000000000000000000000000000000000000081526004016103ab9061111c565b60405180910390fd5b60015f9054906101000a900473ffffffffffffffffffffffffffffffffffffffff1673ffffffffffffffffffffffffffffffffffffffff166323b872dd3330856040518463ffffffff1660e01b81526004016104129392919061113a565b6020604051808303815f875af115801561042e573d5f803e3d5ffd5b505050506040513d601f19601f8201168201806040525081019061045291906111a4565b505f8054906101000a900473ffffffffffffffffffffffffffffffffffffffff1673ffffffffffffffffffffffffffffffffffffffff1663a9059cbb33836040518363ffffffff1660e01b81526004016104ad9291906111cf565b6020604051808303815f875af11580156104c9573d5f803e3d5ffd5b505050506040513d601f19601f820116820180604052508101906104ed91906111a4565b508160035f8282546104ff91906111f6565b925050819055508060025f8282546105179190611229565b925050819055505f8054906101000a900473ffffffffffffffffffffffffffffffffffffffff1673ffffffffffffffffffffffffffffffffffffffff1660015f9054906101000a900473ffffffffffffffffffffffffffffffffffffffff1673ffffffffffffffffffffffffffffffffffffffff163373ffffffffffffffffffffffffffffffffffffffff167fad56699d0f375866eb895ed27203058a36a713382aaded78eb6b67da266d433285856040516105d492919061125c565b60405180910390a45050565b60045f9054906101000a900473ffffffffffffffffffffffffffffffffffffffff1681565b60045f9054906101000a900473ffffffffffffffffffffffffffffffffffffffff1673ffffffffffffffffffffffffffffffffffffffff163373ffffffffffffffffffffffffffffffffffffffff1614610694576040517f08c379a000000000000000000000000000000000000000000000000000000000815260040161068b906112cd565b60405180910390fd5b5f8054906101000a900473ffffffffffffffffffffffffffffffffffffffff1673ffffffffffffffffffffffffffffffffffffffff166323b872dd3330856040518463ffffffff1660e01b81526004016106f09392919061113a565b6020604051808303815f875af115801561070c573d5f803e3d5ffd5b505050506040513d601f19601f8201168201806040525081019061073091906111a4565b5060015f9054906101000a900473ffffffffffffffffffffffffffffffffffffffff1673ffffffffffffffffffffffffffffffffffffffff166323b872dd3330846040518463ffffffff1660e01b815260040161078f9392919061113a565b6020604051808303815f875af11580156107ab573d5f803e3d5ffd5b505050506040513d601f19601f820116820180604052508101906107cf91906111a4565b508160025f8282546107e191906111f6565b925050819055508060035f8282546107f991906111f6565b925050819055503373ffffffffffffffffffffffffffffffffffffffff167fac1d76749e5447b7b16f5ab61447e1bd502f3bb4807af3b28e620d1700a6ee45838360405161084892919061125c565b60405180910390a25050565b60045f9054906101000a900473ffffffffffffffffffffffffffffffffffffffff1673ffffffffffffffffffffffffffffffffffffffff163373ffffffffffffffffffffffffffffffffffffffff16146108e3576040517f08c379a00000000000000000000000000000000000000000000000000000000081526004016108da906112cd565b60405180910390fd5b60025482111580156108f757506003548111155b610936576040517f08c379a000000000000000000000000000000000000000000000000000000000815260040161092d90611335565b60405180910390fd5b5f8054906101000a900473ffffffffffffffffffffffffffffffffffffffff1673ffffffffffffffffffffffffffffffffffffffff1663a9059cbb33846040518363ffffffff1660e01b81526004016109909291906111cf565b6020604051808303815f875af11580156109ac573d5f803e3d5ffd5b505050506040513d601f19601f820116820180604052508101906109d091906111a4565b5060015f9054906101000a900473ffffffffffffffffffffffffffffffffffffffff1673ffffffffffffffffffffffffffffffffffffffff1663a9059cbb33836040518363ffffffff1660e01b8152600401610a2d9291906111cf565b6020604051808303815f875af1158015610a49573d5f803e3d5ffd5b505050506040513d601f19601f82011682018060405250810190610a6d91906111a4565b508160025f828254610a7f9190611229565b925050819055508060035f828254610a979190611229565b925050819055503373ffffffffffffffffffffffffffffffffffffffff167f96cd817c6329656790ef8fba7675405193677d39619571282f5e21f3a98cd0598383604051610ae692919061125c565b60405180910390a25050565b60025481565b5f610b0882600254600354610d78565b90505f8111610b4c576040517f08c379a0000000000000000000000000000000000000000000000000000000008152600401610b439061111c565b60405180910390fd5b5f8054906101000a900473ffffffffffffffffffffffffffffffffffffffff1673ffffffffffffffffffffffffffffffffffffffff166323b872dd3330856040518463ffffffff1660e01b8152600401610ba89392919061113a565b6020604051808303815f875af1158015610bc4573d5f803e3d5ffd5b505050506040513d601f19601f82011682018060405250810190610be891906111a4565b5060015f9054906101000a900473ffffffffffffffffffffffffffffffffffffffff1673ffffffffffffffffffffffffffffffffffffffff1663a9059cbb33836040518363ffffffff1660e01b8152600401610c459291906111cf565b6020604051808303815f875af1158015610c61573d5f803e3d5ffd5b505050506040513d601f19601f82011682018060405250810190610c8591906111a4565b508160025f828254610c9791906111f6565b925050819055508060035f828254610caf9190611229565b9250508190555060015f9054906101000a900473ffffffffffffffffffffffffffffffffffffffff1673ffffffffffffffffffffffffffffffffffffffff165f8054906101000a900473ffffffffffffffffffffffffffffffffffffffff1673ffffffffffffffffffffffffffffffffffffffff163373ffffffffffffffffffffffffffffffffffffffff167fad56699d0f375866eb895ed27203058a36a713382aaded78eb6b67da266d43328585604051610d6c92919061125c565b60405180910390a45050565b5f8083118015610d8757505f82115b610dc6576040517f08c379a0000000000000000000000000000000000000000000000000000000008152600401610dbd9061139d565b60405180910390fd5b5f6103e585610dd59190610fbc565b90505f8382610de49190610fbc565b90505f826103e887610df69190610fbc565b610e0091906111f6565b90508082610e0e919061102a565b93505050509392505050565b5f73ffffffffffffffffffffffffffffffffffffffff82169050919050565b5f610e4382610e1a565b9050919050565b610e5381610e39565b82525050565b5f602082019050610e6c5f830184610e4a565b92915050565b5f819050919050565b610e8481610e72565b82525050565b5f602082019050610e9d5f830184610e7b565b92915050565b5f80fd5b610eb081610e39565b8114610eba575f80fd5b50565b5f81359050610ecb81610ea7565b92915050565b5f60208284031215610ee657610ee5610ea3565b5b5f610ef384828501610ebd565b91505092915050565b610f0581610e72565b8114610f0f575f80fd5b50565b5f81359050610f2081610efc565b92915050565b5f60208284031215610f3b57610f3a610ea3565b5b5f610f4884828501610f12565b91505092915050565b5f8060408385031215610f6757610f66610ea3565b5b5f610f7485828601610f12565b9250506020610f8585828601610f12565b9150509250929050565b7f4e487b71000000000000000000000000000000000000000000000000000000005f52601160045260245ffd5b5f610fc682610e72565b9150610fd183610e72565b9250828202610fdf81610e72565b91508282048414831517610ff657610ff5610f8f565b5b5092915050565b7f4e487b71000000000000000000000000000000000000000000000000000000005f52601260045260245ffd5b5f61103482610e72565b915061103f83610e72565b92508261104f5761104e610ffd565b5b828204905092915050565b5f82825260208201905092915050565b7f496e76616c696420746f6b656e206164647265737300000000000000000000005f82015250565b5f61109e60158361105a565b91506110a98261106a565b602082019050919050565b5f6020820190508181035f8301526110cb81611092565b9050919050565b7f496e73756666696369656e74206f757470757420616d6f756e740000000000005f82015250565b5f611106601a8361105a565b9150611111826110d2565b602082019050919050565b5f6020820190508181035f830152611133816110fa565b9050919050565b5f60608201905061114d5f830186610e4a565b61115a6020830185610e4a565b6111676040830184610e7b565b949350505050565b5f8115159050919050565b6111838161116f565b811461118d575f80fd5b50565b5f8151905061119e8161117a565b92915050565b5f602082840312156111b9576111b8610ea3565b5b5f6111c684828501611190565b91505092915050565b5f6040820190506111e25f830185610e4a565b6111ef6020830184610e7b565b9392505050565b5f61120082610e72565b915061120b83610e72565b925082820190508082111561122357611222610f8f565b5b92915050565b5f61123382610e72565b915061123e83610e72565b925082820390508181111561125657611255610f8f565b5b92915050565b5f60408201905061126f5f830185610e7b565b61127c6020830184610e7b565b9392505050565b7f4e6f742074686520636f6e7472616374206f776e6572000000000000000000005f82015250565b5f6112b760168361105a565b91506112c282611283565b602082019050919050565b5f6020820190508181035f8301526112e4816112ab565b9050919050565b7f496e73756666696369656e74206c6971756964697479000000000000000000005f82015250565b5f61131f60168361105a565b915061132a826112eb565b602082019050919050565b5f6020820190508181035f83015261134c81611313565b9050919050565b7f496e76616c6964207265736572766573000000000000000000000000000000005f82015250565b5f61138760108361105a565b915061139282611353565b602082019050919050565b5f6020820190508181035f8301526113b48161137b565b905091905056fea264697066735822122029feaa33309b609599c1deaa829c4d3526b9c7f53f70194d785cd6e58d33b79364736f6c634300081a0033",
			"opcodes": "PUSH1 0x80 PUSH1 0x40 MSTORE CALLVALUE DUP1 ISZERO PUSH2 0xF JUMPI PUSH0 DUP1 REVERT JUMPDEST POP PUSH1 0x40 MLOAD PUSH2 0x1591 CODESIZE SUB DUP1 PUSH2 0x1591 DUP4 CODECOPY DUP2 DUP2 ADD PUSH1 0x40 MSTORE DUP2 ADD SWAP1 PUSH2 0x31 SWAP2 SWAP1 PUSH2 0x155 JUMP JUMPDEST DUP2 PUSH0 DUP1 PUSH2 0x100 EXP DUP2 SLOAD DUP2 PUSH20 0xFFFFFFFFFFFFFFFFFFFFFFFFFFFFFFFFFFFFFFFF MUL NOT AND SWAP1 DUP4 PUSH20 0xFFFFFFFFFFFFFFFFFFFFFFFFFFFFFFFFFFFFFFFF AND MUL OR SWAP1 SSTORE POP DUP1 PUSH1 0x1 PUSH0 PUSH2 0x100 EXP DUP2 SLOAD DUP2 PUSH20 0xFFFFFFFFFFFFFFFFFFFFFFFFFFFFFFFFFFFFFFFF MUL NOT AND SWAP1 DUP4 PUSH20 0xFFFFFFFFFFFFFFFFFFFFFFFFFFFFFFFFFFFFFFFF AND MUL OR SWAP1 SSTORE POP CALLER PUSH1 0x4 PUSH0 PUSH2 0x100 EXP DUP2 SLOAD DUP2 PUSH20 0xFFFFFFFFFFFFFFFFFFFFFFFFFFFFFFFFFFFFFFFF MUL NOT AND SWAP1 DUP4 PUSH20 0xFFFFFFFFFFFFFFFFFFFFFFFFFFFFFFFFFFFFFFFF AND MUL OR SWAP1 SSTORE POP POP POP PUSH2 0x193 JUMP JUMPDEST PUSH0 DUP1 REVERT JUMPDEST PUSH0 PUSH20 0xFFFFFFFFFFFFFFFFFFFFFFFFFFFFFFFFFFFFFFFF DUP3 AND SWAP1 POP SWAP2 SWAP1 POP JUMP JUMPDEST PUSH0 PUSH2 0x124 DUP3 PUSH2 0xFB JUMP JUMPDEST SWAP1 POP SWAP2 SWAP1 POP JUMP JUMPDEST PUSH2 0x134 DUP2 PUSH2 0x11A JUMP JUMPDEST DUP2 EQ PUSH2 0x13E JUMPI PUSH0 DUP1 REVERT JUMPDEST POP JUMP JUMPDEST PUSH0 DUP2 MLOAD SWAP1 POP PUSH2 0x14F DUP2 PUSH2 0x12B JUMP JUMPDEST SWAP3 SWAP2 POP POP JUMP JUMPDEST PUSH0 DUP1 PUSH1 0x40 DUP4 DUP6 SUB SLT ISZERO PUSH2 0x16B JUMPI PUSH2 0x16A PUSH2 0xF7 JUMP JUMPDEST JUMPDEST PUSH0 PUSH2 0x178 DUP6 DUP3 DUP7 ADD PUSH2 0x141 JUMP JUMPDEST SWAP3 POP POP PUSH1 0x20 PUSH2 0x189 DUP6 DUP3 DUP7 ADD PUSH2 0x141 JUMP JUMPDEST SWAP2 POP POP SWAP3 POP SWAP3 SWAP1 POP JUMP JUMPDEST PUSH2 0x13F1 DUP1 PUSH2 0x1A0 PUSH0 CODECOPY PUSH0 RETURN INVALID PUSH1 0x80 PUSH1 0x40 MSTORE CALLVALUE DUP1 ISZERO PUSH2 0xF JUMPI PUSH0 DUP1 REVERT JUMPDEST POP PUSH1 0x4 CALLDATASIZE LT PUSH2 0x9C JUMPI PUSH0 CALLDATALOAD PUSH1 0xE0 SHR DUP1 PUSH4 0x8DA5CB5B GT PUSH2 0x64 JUMPI DUP1 PUSH4 0x8DA5CB5B EQ PUSH2 0x146 JUMPI DUP1 PUSH4 0x9CD441DA EQ PUSH2 0x164 JUMPI DUP1 PUSH4 0x9D7DE6B3 EQ PUSH2 0x180 JUMPI DUP1 PUSH4 0xDC5FA6C5 EQ PUSH2 0x19C JUMPI DUP1 PUSH4 0xE4F1F70A EQ PUSH2 0x1BA JUMPI PUSH2 0x9C JUMP JUMPDEST DUP1 PUSH4 0xFC63D10 EQ PUSH2 0xA0 JUMPI DUP1 PUSH4 0x19E36F3B EQ PUSH2 0xBE JUMPI DUP1 PUSH4 0x41976E09 EQ PUSH2 0xDC JUMPI DUP1 PUSH4 0x5F64B55B EQ PUSH2 0x10C JUMPI DUP1 PUSH4 0x8014A7AA EQ PUSH2 0x12A JUMPI JUMPDEST PUSH0 DUP1 REVERT JUMPDEST PUSH2 0xA8 PUSH2 0x1D6 JUMP JUMPDEST PUSH1 0x40 MLOAD PUSH2 0xB5 SWAP2 SWAP1 PUSH2 0xE59 JUMP JUMPDEST PUSH1 0x40 MLOAD DUP1 SWAP2 SUB SWAP1 RETURN JUMPDEST PUSH2 0xC6 PUSH2 0x1F9 JUMP JUMPDEST PUSH1 0x40 MLOAD PUSH2 0xD3 SWAP2 SWAP1 PUSH2 0xE8A JUMP JUMPDEST PUSH1 0x40 MLOAD DUP1 SWAP2 SUB SWAP1 RETURN JUMPDEST PUSH2 0xF6 PUSH1 0x4 DUP1 CALLDATASIZE SUB DUP2 ADD SWAP1 PUSH2 0xF1 SWAP2 SWAP1 PUSH2 0xED1 JUMP JUMPDEST PUSH2 0x1FF JUMP JUMPDEST PUSH1 0x40 MLOAD PUSH2 0x103 SWAP2 SWAP1 PUSH2 0xE8A JUMP JUMPDEST PUSH1 0x40 MLOAD DUP1 SWAP2 SUB SWAP1 RETURN JUMPDEST PUSH2 0x114 PUSH2 0x33B JUMP JUMPDEST PUSH1 0x40 MLOAD PUSH2 0x121 SWAP2 SWAP1 PUSH2 0xE59 JUMP JUMPDEST PUSH1 0x40 MLOAD DUP1 SWAP2 SUB SWAP1 RETURN JUMPDEST PUSH2 0x144 PUSH1 0x4 DUP1 CALLDATASIZE SUB DUP2 ADD SWAP1 PUSH2 0x13F SWAP2 SWAP1 PUSH2 0xF26 JUMP JUMPDEST PUSH2 0x360 JUMP JUMPDEST STOP JUMPDEST PUSH2 0x14E PUSH2 0x5E0 JUMP JUMPDEST PUSH1 0x40 MLOAD PUSH2 0x15B SWAP2 SWAP1 PUSH2 0xE59 JUMP JUMPDEST PUSH1 0x40 MLOAD DUP1 SWAP2 SUB SWAP1 RETURN JUMPDEST PUSH2 0x17E PUSH1 0x4 DUP1 CALLDATASIZE SUB DUP2 ADD SWAP1 PUSH2 0x179 SWAP2 SWAP1 PUSH2 0xF51 JUMP JUMPDEST PUSH2 0x605 JUMP JUMPDEST STOP JUMPDEST PUSH2 0x19A PUSH1 0x4 DUP1 CALLDATASIZE SUB DUP2 ADD SWAP1 PUSH2 0x195 SWAP2 SWAP1 PUSH2 0xF51 JUMP JUMPDEST PUSH2 0x854 JUMP JUMPDEST STOP JUMPDEST PUSH2 0x1A4 PUSH2 0xAF2 JUMP JUMPDEST PUSH1 0x40 MLOAD PUSH2 0x1B1 SWAP2 SWAP1 PUSH2 0xE8A JUMP JUMPDEST PUSH1 0x40 MLOAD DUP1 SWAP2 SUB SWAP1 RETURN JUMPDEST PUSH2 0x1D4 PUSH1 0x4 DUP1 CALLDATASIZE SUB DUP2 ADD SWAP1 PUSH2 0x1CF SWAP2 SWAP1 PUSH2 0xF26 JUMP JUMPDEST PUSH2 0xAF8 JUMP JUMPDEST STOP JUMPDEST PUSH0 DUP1 SLOAD SWAP1 PUSH2 0x100 EXP SWAP1 DIV PUSH20 0xFFFFFFFFFFFFFFFFFFFFFFFFFFFFFFFFFFFFFFFF AND DUP2 JUMP JUMPDEST PUSH1 0x3 SLOAD DUP2 JUMP JUMPDEST PUSH0 DUP1 PUSH0 SWAP1 SLOAD SWAP1 PUSH2 0x100 EXP SWAP1 DIV PUSH20 0xFFFFFFFFFFFFFFFFFFFFFFFFFFFFFFFFFFFFFFFF AND PUSH20 0xFFFFFFFFFFFFFFFFFFFFFFFFFFFFFFFFFFFFFFFF AND DUP3 PUSH20 0xFFFFFFFFFFFFFFFFFFFFFFFFFFFFFFFFFFFFFFFF AND SUB PUSH2 0x27D JUMPI PUSH1 0x2 SLOAD PUSH8 0xDE0B6B3A7640000 PUSH1 0x3 SLOAD PUSH2 0x26C SWAP2 SWAP1 PUSH2 0xFBC JUMP JUMPDEST PUSH2 0x276 SWAP2 SWAP1 PUSH2 0x102A JUMP JUMPDEST SWAP1 POP PUSH2 0x336 JUMP JUMPDEST PUSH1 0x1 PUSH0 SWAP1 SLOAD SWAP1 PUSH2 0x100 EXP SWAP1 DIV PUSH20 0xFFFFFFFFFFFFFFFFFFFFFFFFFFFFFFFFFFFFFFFF AND PUSH20 0xFFFFFFFFFFFFFFFFFFFFFFFFFFFFFFFFFFFFFFFF AND DUP3 PUSH20 0xFFFFFFFFFFFFFFFFFFFFFFFFFFFFFFFFFFFFFFFF AND SUB PUSH2 0x2FB JUMPI PUSH1 0x3 SLOAD PUSH8 0xDE0B6B3A7640000 PUSH1 0x2 SLOAD PUSH2 0x2EA SWAP2 SWAP1 PUSH2 0xFBC JUMP JUMPDEST PUSH2 0x2F4 SWAP2 SWAP1 PUSH2 0x102A JUMP JUMPDEST SWAP1 POP PUSH2 0x336 JUMP JUMPDEST PUSH1 0x40 MLOAD PUSH32 0x8C379A000000000000000000000000000000000000000000000000000000000 DUP2 MSTORE PUSH1 0x4 ADD PUSH2 0x32D SWAP1 PUSH2 0x10B4 JUMP JUMPDEST PUSH1 0x40 MLOAD DUP1 SWAP2 SUB SWAP1 REVERT JUMPDEST SWAP2 SWAP1 POP JUMP JUMPDEST PUSH1 0x1 PUSH0 SWAP1 SLOAD SWAP1 PUSH2 0x100 EXP SWAP1 DIV PUSH20 0xFFFFFFFFFFFFFFFFFFFFFFFFFFFFFFFFFFFFFFFF AND DUP2 JUMP JUMPDEST PUSH0 PUSH2 0x370 DUP3 PUSH1 0x3 SLOAD PUSH1 0x2 SLOAD PUSH2 0xD78 JUMP JUMPDEST SWAP1 POP PUSH0 DUP2 GT PUSH2 0x3B4 JUMPI PUSH1 0x40 MLOAD PUSH32 0x8C379A000000000000000000000000000000000000000000000000000000000 DUP2 MSTORE PUSH1 0x4 ADD PUSH2 0x3AB SWAP1 PUSH2 0x111C JUMP JUMPDEST PUSH1 0x40 MLOAD DUP1 SWAP2 SUB SWAP1 REVERT JUMPDEST PUSH1 0x1 PUSH0 SWAP1 SLOAD SWAP1 PUSH2 0x100 EXP SWAP1 DIV PUSH20 0xFFFFFFFFFFFFFFFFFFFFFFFFFFFFFFFFFFFFFFFF AND PUSH20 0xFFFFFFFFFFFFFFFFFFFFFFFFFFFFFFFFFFFFFFFF AND PUSH4 0x23B872DD CALLER ADDRESS DUP6 PUSH1 0x40 MLOAD DUP5 PUSH4 0xFFFFFFFF AND PUSH1 0xE0 SHL DUP2 MSTORE PUSH1 0x4 ADD PUSH2 0x412 SWAP4 SWAP3 SWAP2 SWAP1 PUSH2 0x113A JUMP JUMPDEST PUSH1 0x20 PUSH1 0x40 MLOAD DUP1 DUP4 SUB DUP2 PUSH0 DUP8 GAS CALL ISZERO DUP1 ISZERO PUSH2 0x42E JUMPI RETURNDATASIZE PUSH0 DUP1 RETURNDATACOPY RETURNDATASIZE PUSH0 REVERT JUMPDEST POP POP POP POP PUSH1 0x40 MLOAD RETURNDATASIZE PUSH1 0x1F NOT PUSH1 0x1F DUP3 ADD AND DUP3 ADD DUP1 PUSH1 0x40 MSTORE POP DUP2 ADD SWAP1 PUSH2 0x452 SWAP2 SWAP1 PUSH2 0x11A4 JUMP JUMPDEST POP PUSH0 DUP1 SLOAD SWAP1 PUSH2 0x100 EXP SWAP1 DIV PUSH20 0xFFFFFFFFFFFFFFFFFFFFFFFFFFFFFFFFFFFFFFFF AND PUSH20 0xFFFFFFFFFFFFFFFFFFFFFFFFFFFFFFFFFFFFFFFF AND PUSH4 0xA9059CBB CALLER DUP4 PUSH1 0x40 MLOAD DUP4 PUSH4 0xFFFFFFFF AND PUSH1 0xE0 SHL DUP2 MSTORE PUSH1 0x4 ADD PUSH2 0x4AD SWAP3 SWAP2 SWAP1 PUSH2 0x11CF JUMP JUMPDEST PUSH1 0x20 PUSH1 0x40 MLOAD DUP1 DUP4 SUB DUP2 PUSH0 DUP8 GAS CALL ISZERO DUP1 ISZERO PUSH2 0x4C9 JUMPI RETURNDATASIZE PUSH0 DUP1 RETURNDATACOPY RETURNDATASIZE PUSH0 REVERT JUMPDEST POP POP POP POP PUSH1 0x40 MLOAD RETURNDATASIZE PUSH1 0x1F NOT PUSH1 0x1F DUP3 ADD AND DUP3 ADD DUP1 PUSH1 0x40 MSTORE POP DUP2 ADD SWAP1 PUSH2 0x4ED SWAP2 SWAP1 PUSH2 0x11A4 JUMP JUMPDEST POP DUP2 PUSH1 0x3 PUSH0 DUP3 DUP3 SLOAD PUSH2 0x4FF SWAP2 SWAP1 PUSH2 0x11F6 JUMP JUMPDEST SWAP3 POP POP DUP2 SWAP1 SSTORE POP DUP1 PUSH1 0x2 PUSH0 DUP3 DUP3 SLOAD PUSH2 0x517 SWAP2 SWAP1 PUSH2 0x1229 JUMP JUMPDEST SWAP3 POP POP DUP2 SWAP1 SSTORE POP PUSH0 DUP1 SLOAD SWAP1 PUSH2 0x100 EXP SWAP1 DIV PUSH20 0xFFFFFFFFFFFFFFFFFFFFFFFFFFFFFFFFFFFFFFFF AND PUSH20 0xFFFFFFFFFFFFFFFFFFFFFFFFFFFFFFFFFFFFFFFF AND PUSH1 0x1 PUSH0 SWAP1 SLOAD SWAP1 PUSH2 0x100 EXP SWAP1 DIV PUSH20 0xFFFFFFFFFFFFFFFFFFFFFFFFFFFFFFFFFFFFFFFF AND PUSH20 0xFFFFFFFFFFFFFFFFFFFFFFFFFFFFFFFFFFFFFFFF AND CALLER PUSH20 0xFFFFFFFFFFFFFFFFFFFFFFFFFFFFFFFFFFFFFFFF AND PUSH32 0xAD56699D0F375866EB895ED27203058A36A713382AADED78EB6B67DA266D4332 DUP6 DUP6 PUSH1 0x40 MLOAD PUSH2 0x5D4 SWAP3 SWAP2 SWAP1 PUSH2 0x125C JUMP JUMPDEST PUSH1 0x40 MLOAD DUP1 SWAP2 SUB SWAP1 LOG4 POP POP JUMP JUMPDEST PUSH1 0x4 PUSH0 SWAP1 SLOAD SWAP1 PUSH2 0x100 EXP SWAP1 DIV PUSH20 0xFFFFFFFFFFFFFFFFFFFFFFFFFFFFFFFFFFFFFFFF AND DUP2 JUMP JUMPDEST PUSH1 0x4 PUSH0 SWAP1 SLOAD SWAP1 PUSH2 0x100 EXP SWAP1 DIV PUSH20 0xFFFFFFFFFFFFFFFFFFFFFFFFFFFFFFFFFFFFFFFF AND PUSH20 0xFFFFFFFFFFFFFFFFFFFFFFFFFFFFFFFFFFFFFFFF AND CALLER PUSH20 0xFFFFFFFFFFFFFFFFFFFFFFFFFFFFFFFFFFFFFFFF AND EQ PUSH2 0x694 JUMPI PUSH1 0x40 MLOAD PUSH32 0x8C379A000000000000000000000000000000000000000000000000000000000 DUP2 MSTORE PUSH1 0x4 ADD PUSH2 0x68B SWAP1 PUSH2 0x12CD JUMP JUMPDEST PUSH1 0x40 MLOAD DUP1 SWAP2 SUB SWAP1 REVERT JUMPDEST PUSH0 DUP1 SLOAD SWAP1 PUSH2 0x100 EXP SWAP1 DIV PUSH20 0xFFFFFFFFFFFFFFFFFFFFFFFFFFFFFFFFFFFFFFFF AND PUSH20 0xFFFFFFFFFFFFFFFFFFFFFFFFFFFFFFFFFFFFFFFF AND PUSH4 0x23B872DD CALLER ADDRESS DUP6 PUSH1 0x40 MLOAD DUP5 PUSH4 0xFFFFFFFF AND PUSH1 0xE0 SHL DUP2 MSTORE PUSH1 0x4 ADD PUSH2 0x6F0 SWAP4 SWAP3 SWAP2 SWAP1 PUSH2 0x113A JUMP JUMPDEST PUSH1 0x20 PUSH1 0x40 MLOAD DUP1 DUP4 SUB DUP2 PUSH0 DUP8 GAS CALL ISZERO DUP1 ISZERO PUSH2 0x70C JUMPI RETURNDATASIZE PUSH0 DUP1 RETURNDATACOPY RETURNDATASIZE PUSH0 REVERT JUMPDEST POP POP POP POP PUSH1 0x40 MLOAD RETURNDATASIZE PUSH1 0x1F NOT PUSH1 0x1F DUP3 ADD AND DUP3 ADD DUP1 PUSH1 0x40 MSTORE POP DUP2 ADD SWAP1 PUSH2 0x730 SWAP2 SWAP1 PUSH2 0x11A4 JUMP JUMPDEST POP PUSH1 0x1 PUSH0 SWAP1 SLOAD SWAP1 PUSH2 0x100 EXP SWAP1 DIV PUSH20 0xFFFFFFFFFFFFFFFFFFFFFFFFFFFFFFFFFFFFFFFF AND PUSH20 0xFFFFFFFFFFFFFFFFFFFFFFFFFFFFFFFFFFFFFFFF AND PUSH4 0x23B872DD CALLER ADDRESS DUP5 PUSH1 0x40 MLOAD DUP5 PUSH4 0xFFFFFFFF AND PUSH1 0xE0 SHL DUP2 MSTORE PUSH1 0x4 ADD PUSH2 0x78F SWAP4 SWAP3 SWAP2 SWAP1 PUSH2 0x113A JUMP JUMPDEST PUSH1 0x20 PUSH1 0x40 MLOAD DUP1 DUP4 SUB DUP2 PUSH0 DUP8 GAS CALL ISZERO DUP1 ISZERO PUSH2 0x7AB JUMPI RETURNDATASIZE PUSH0 DUP1 RETURNDATACOPY RETURNDATASIZE PUSH0 REVERT JUMPDEST POP POP POP POP PUSH1 0x40 MLOAD RETURNDATASIZE PUSH1 0x1F NOT PUSH1 0x1F DUP3 ADD AND DUP3 ADD DUP1 PUSH1 0x40 MSTORE POP DUP2 ADD SWAP1 PUSH2 0x7CF SWAP2 SWAP1 PUSH2 0x11A4 JUMP JUMPDEST POP DUP2 PUSH1 0x2 PUSH0 DUP3 DUP3 SLOAD PUSH2 0x7E1 SWAP2 SWAP1 PUSH2 0x11F6 JUMP JUMPDEST SWAP3 POP POP DUP2 SWAP1 SSTORE POP DUP1 PUSH1 0x3 PUSH0 DUP3 DUP3 SLOAD PUSH2 0x7F9 SWAP2 SWAP1 PUSH2 0x11F6 JUMP JUMPDEST SWAP3 POP POP DUP2 SWAP1 SSTORE POP CALLER PUSH20 0xFFFFFFFFFFFFFFFFFFFFFFFFFFFFFFFFFFFFFFFF AND PUSH32 0xAC1D76749E5447B7B16F5AB61447E1BD502F3BB4807AF3B28E620D1700A6EE45 DUP4 DUP4 PUSH1 0x40 MLOAD PUSH2 0x848 SWAP3 SWAP2 SWAP1 PUSH2 0x125C JUMP JUMPDEST PUSH1 0x40 MLOAD DUP1 SWAP2 SUB SWAP1 LOG2 POP POP JUMP JUMPDEST PUSH1 0x4 PUSH0 SWAP1 SLOAD SWAP1 PUSH2 0x100 EXP SWAP1 DIV PUSH20 0xFFFFFFFFFFFFFFFFFFFFFFFFFFFFFFFFFFFFFFFF AND PUSH20 0xFFFFFFFFFFFFFFFFFFFFFFFFFFFFFFFFFFFFFFFF AND CALLER PUSH20 0xFFFFFFFFFFFFFFFFFFFFFFFFFFFFFFFFFFFFFFFF AND EQ PUSH2 0x8E3 JUMPI PUSH1 0x40 MLOAD PUSH32 0x8C379A000000000000000000000000000000000000000000000000000000000 DUP2 MSTORE PUSH1 0x4 ADD PUSH2 0x8DA SWAP1 PUSH2 0x12CD JUMP JUMPDEST PUSH1 0x40 MLOAD DUP1 SWAP2 SUB SWAP1 REVERT JUMPDEST PUSH1 0x2 SLOAD DUP3 GT ISZERO DUP1 ISZERO PUSH2 0x8F7 JUMPI POP PUSH1 0x3 SLOAD DUP2 GT ISZERO JUMPDEST PUSH2 0x936 JUMPI PUSH1 0x40 MLOAD PUSH32 0x8C379A000000000000000000000000000000000000000000000000000000000 DUP2 MSTORE PUSH1 0x4 ADD PUSH2 0x92D SWAP1 PUSH2 0x1335 JUMP JUMPDEST PUSH1 0x40 MLOAD DUP1 SWAP2 SUB SWAP1 REVERT JUMPDEST PUSH0 DUP1 SLOAD SWAP1 PUSH2 0x100 EXP SWAP1 DIV PUSH20 0xFFFFFFFFFFFFFFFFFFFFFFFFFFFFFFFFFFFFFFFF AND PUSH20 0xFFFFFFFFFFFFFFFFFFFFFFFFFFFFFFFFFFFFFFFF AND PUSH4 0xA9059CBB CALLER DUP5 PUSH1 0x40 MLOAD DUP4 PUSH4 0xFFFFFFFF AND PUSH1 0xE0 SHL DUP2 MSTORE PUSH1 0x4 ADD PUSH2 0x990 SWAP3 SWAP2 SWAP1 PUSH2 0x11CF JUMP JUMPDEST PUSH1 0x20 PUSH1 0x40 MLOAD DUP1 DUP4 SUB DUP2 PUSH0 DUP8 GAS CALL ISZERO DUP1 ISZERO PUSH2 0x9AC JUMPI RETURNDATASIZE PUSH0 DUP1 RETURNDATACOPY RETURNDATASIZE PUSH0 REVERT JUMPDEST POP POP POP POP PUSH1 0x40 MLOAD RETURNDATASIZE PUSH1 0x1F NOT PUSH1 0x1F DUP3 ADD AND DUP3 ADD DUP1 PUSH1 0x40 MSTORE POP DUP2 ADD SWAP1 PUSH2 0x9D0 SWAP2 SWAP1 PUSH2 0x11A4 JUMP JUMPDEST POP PUSH1 0x1 PUSH0 SWAP1 SLOAD SWAP1 PUSH2 0x100 EXP SWAP1 DIV PUSH20 0xFFFFFFFFFFFFFFFFFFFFFFFFFFFFFFFFFFFFFFFF AND PUSH20 0xFFFFFFFFFFFFFFFFFFFFFFFFFFFFFFFFFFFFFFFF AND PUSH4 0xA9059CBB CALLER DUP4 PUSH1 0x40 MLOAD DUP4 PUSH4 0xFFFFFFFF AND PUSH1 0xE0 SHL DUP2 MSTORE PUSH1 0x4 ADD PUSH2 0xA2D SWAP3 SWAP2 SWAP1 PUSH2 0x11CF JUMP JUMPDEST PUSH1 0x20 PUSH1 0x40 MLOAD DUP1 DUP4 SUB DUP2 PUSH0 DUP8 GAS CALL ISZERO DUP1 ISZERO PUSH2 0xA49 JUMPI RETURNDATASIZE PUSH0 DUP1 RETURNDATACOPY RETURNDATASIZE PUSH0 REVERT JUMPDEST POP POP POP POP PUSH1 0x40 MLOAD RETURNDATASIZE PUSH1 0x1F NOT PUSH1 0x1F DUP3 ADD AND DUP3 ADD DUP1 PUSH1 0x40 MSTORE POP DUP2 ADD SWAP1 PUSH2 0xA6D SWAP2 SWAP1 PUSH2 0x11A4 JUMP JUMPDEST POP DUP2 PUSH1 0x2 PUSH0 DUP3 DUP3 SLOAD PUSH2 0xA7F SWAP2 SWAP1 PUSH2 0x1229 JUMP JUMPDEST SWAP3 POP POP DUP2 SWAP1 SSTORE POP DUP1 PUSH1 0x3 PUSH0 DUP3 DUP3 SLOAD PUSH2 0xA97 SWAP2 SWAP1 PUSH2 0x1229 JUMP JUMPDEST SWAP3 POP POP DUP2 SWAP1 SSTORE POP CALLER PUSH20 0xFFFFFFFFFFFFFFFFFFFFFFFFFFFFFFFFFFFFFFFF AND PUSH32 0x96CD817C6329656790EF8FBA7675405193677D39619571282F5E21F3A98CD059 DUP4 DUP4 PUSH1 0x40 MLOAD PUSH2 0xAE6 SWAP3 SWAP2 SWAP1 PUSH2 0x125C JUMP JUMPDEST PUSH1 0x40 MLOAD DUP1 SWAP2 SUB SWAP1 LOG2 POP POP JUMP JUMPDEST PUSH1 0x2 SLOAD DUP2 JUMP JUMPDEST PUSH0 PUSH2 0xB08 DUP3 PUSH1 0x2 SLOAD PUSH1 0x3 SLOAD PUSH2 0xD78 JUMP JUMPDEST SWAP1 POP PUSH0 DUP2 GT PUSH2 0xB4C JUMPI PUSH1 0x40 MLOAD PUSH32 0x8C379A000000000000000000000000000000000000000000000000000000000 DUP2 MSTORE PUSH1 0x4 ADD PUSH2 0xB43 SWAP1 PUSH2 0x111C JUMP JUMPDEST PUSH1 0x40 MLOAD DUP1 SWAP2 SUB SWAP1 REVERT JUMPDEST PUSH0 DUP1 SLOAD SWAP1 PUSH2 0x100 EXP SWAP1 DIV PUSH20 0xFFFFFFFFFFFFFFFFFFFFFFFFFFFFFFFFFFFFFFFF AND PUSH20 0xFFFFFFFFFFFFFFFFFFFFFFFFFFFFFFFFFFFFFFFF AND PUSH4 0x23B872DD CALLER ADDRESS DUP6 PUSH1 0x40 MLOAD DUP5 PUSH4 0xFFFFFFFF AND PUSH1 0xE0 SHL DUP2 MSTORE PUSH1 0x4 ADD PUSH2 0xBA8 SWAP4 SWAP3 SWAP2 SWAP1 PUSH2 0x113A JUMP JUMPDEST PUSH1 0x20 PUSH1 0x40 MLOAD DUP1 DUP4 SUB DUP2 PUSH0 DUP8 GAS CALL ISZERO DUP1 ISZERO PUSH2 0xBC4 JUMPI RETURNDATASIZE PUSH0 DUP1 RETURNDATACOPY RETURNDATASIZE PUSH0 REVERT JUMPDEST POP POP POP POP PUSH1 0x40 MLOAD RETURNDATASIZE PUSH1 0x1F NOT PUSH1 0x1F DUP3 ADD AND DUP3 ADD DUP1 PUSH1 0x40 MSTORE POP DUP2 ADD SWAP1 PUSH2 0xBE8 SWAP2 SWAP1 PUSH2 0x11A4 JUMP JUMPDEST POP PUSH1 0x1 PUSH0 SWAP1 SLOAD SWAP1 PUSH2 0x100 EXP SWAP1 DIV PUSH20 0xFFFFFFFFFFFFFFFFFFFFFFFFFFFFFFFFFFFFFFFF AND PUSH20 0xFFFFFFFFFFFFFFFFFFFFFFFFFFFFFFFFFFFFFFFF AND PUSH4 0xA9059CBB CALLER DUP4 PUSH1 0x40 MLOAD DUP4 PUSH4 0xFFFFFFFF AND PUSH1 0xE0 SHL DUP2 MSTORE PUSH1 0x4 ADD PUSH2 0xC45 SWAP3 SWAP2 SWAP1 PUSH2 0x11CF JUMP JUMPDEST PUSH1 0x20 PUSH1 0x40 MLOAD DUP1 DUP4 SUB DUP2 PUSH0 DUP8 GAS CALL ISZERO DUP1 ISZERO PUSH2 0xC61 JUMPI RETURNDATASIZE PUSH0 DUP1 RETURNDATACOPY RETURNDATASIZE PUSH0 REVERT JUMPDEST POP POP POP POP PUSH1 0x40 MLOAD RETURNDATASIZE PUSH1 0x1F NOT PUSH1 0x1F DUP3 ADD AND DUP3 ADD DUP1 PUSH1 0x40 MSTORE POP DUP2 ADD SWAP1 PUSH2 0xC85 SWAP2 SWAP1 PUSH2 0x11A4 JUMP JUMPDEST POP DUP2 PUSH1 0x2 PUSH0 DUP3 DUP3 SLOAD PUSH2 0xC97 SWAP2 SWAP1 PUSH2 0x11F6 JUMP JUMPDEST SWAP3 POP POP DUP2 SWAP1 SSTORE POP DUP1 PUSH1 0x3 PUSH0 DUP3 DUP3 SLOAD PUSH2 0xCAF SWAP2 SWAP1 PUSH2 0x1229 JUMP JUMPDEST SWAP3 POP POP DUP2 SWAP1 SSTORE POP PUSH1 0x1 PUSH0 SWAP1 SLOAD SWAP1 PUSH2 0x100 EXP SWAP1 DIV PUSH20 0xFFFFFFFFFFFFFFFFFFFFFFFFFFFFFFFFFFFFFFFF AND PUSH20 0xFFFFFFFFFFFFFFFFFFFFFFFFFFFFFFFFFFFFFFFF AND PUSH0 DUP1 SLOAD SWAP1 PUSH2 0x100 EXP SWAP1 DIV PUSH20 0xFFFFFFFFFFFFFFFFFFFFFFFFFFFFFFFFFFFFFFFF AND PUSH20 0xFFFFFFFFFFFFFFFFFFFFFFFFFFFFFFFFFFFFFFFF AND CALLER PUSH20 0xFFFFFFFFFFFFFFFFFFFFFFFFFFFFFFFFFFFFFFFF AND PUSH32 0xAD56699D0F375866EB895ED27203058A36A713382AADED78EB6B67DA266D4332 DUP6 DUP6 PUSH1 0x40 MLOAD PUSH2 0xD6C SWAP3 SWAP2 SWAP1 PUSH2 0x125C JUMP JUMPDEST PUSH1 0x40 MLOAD DUP1 SWAP2 SUB SWAP1 LOG4 POP POP JUMP JUMPDEST PUSH0 DUP1 DUP4 GT DUP1 ISZERO PUSH2 0xD87 JUMPI POP PUSH0 DUP3 GT JUMPDEST PUSH2 0xDC6 JUMPI PUSH1 0x40 MLOAD PUSH32 0x8C379A000000000000000000000000000000000000000000000000000000000 DUP2 MSTORE PUSH1 0x4 ADD PUSH2 0xDBD SWAP1 PUSH2 0x139D JUMP JUMPDEST PUSH1 0x40 MLOAD DUP1 SWAP2 SUB SWAP1 REVERT JUMPDEST PUSH0 PUSH2 0x3E5 DUP6 PUSH2 0xDD5 SWAP2 SWAP1 PUSH2 0xFBC JUMP JUMPDEST SWAP1 POP PUSH0 DUP4 DUP3 PUSH2 0xDE4 SWAP2 SWAP1 PUSH2 0xFBC JUMP JUMPDEST SWAP1 POP PUSH0 DUP3 PUSH2 0x3E8 DUP8 PUSH2 0xDF6 SWAP2 SWAP1 PUSH2 0xFBC JUMP JUMPDEST PUSH2 0xE00 SWAP2 SWAP1 PUSH2 0x11F6 JUMP JUMPDEST SWAP1 POP DUP1 DUP3 PUSH2 0xE0E SWAP2 SWAP1 PUSH2 0x102A JUMP JUMPDEST SWAP4 POP POP POP POP SWAP4 SWAP3 POP POP POP JUMP JUMPDEST PUSH0 PUSH20 0xFFFFFFFFFFFFFFFFFFFFFFFFFFFFFFFFFFFFFFFF DUP3 AND SWAP1 POP SWAP2 SWAP1 POP JUMP JUMPDEST PUSH0 PUSH2 0xE43 DUP3 PUSH2 0xE1A JUMP JUMPDEST SWAP1 POP SWAP2 SWAP1 POP JUMP JUMPDEST PUSH2 0xE53 DUP2 PUSH2 0xE39 JUMP JUMPDEST DUP3 MSTORE POP POP JUMP JUMPDEST PUSH0 PUSH1 0x20 DUP3 ADD SWAP1 POP PUSH2 0xE6C PUSH0 DUP4 ADD DUP5 PUSH2 0xE4A JUMP JUMPDEST SWAP3 SWAP2 POP POP JUMP JUMPDEST PUSH0 DUP2 SWAP1 POP SWAP2 SWAP1 POP JUMP JUMPDEST PUSH2 0xE84 DUP2 PUSH2 0xE72 JUMP JUMPDEST DUP3 MSTORE POP POP JUMP JUMPDEST PUSH0 PUSH1 0x20 DUP3 ADD SWAP1 POP PUSH2 0xE9D PUSH0 DUP4 ADD DUP5 PUSH2 0xE7B JUMP JUMPDEST SWAP3 SWAP2 POP POP JUMP JUMPDEST PUSH0 DUP1 REVERT JUMPDEST PUSH2 0xEB0 DUP2 PUSH2 0xE39 JUMP JUMPDEST DUP2 EQ PUSH2 0xEBA JUMPI PUSH0 DUP1 REVERT JUMPDEST POP JUMP JUMPDEST PUSH0 DUP2 CALLDATALOAD SWAP1 POP PUSH2 0xECB DUP2 PUSH2 0xEA7 JUMP JUMPDEST SWAP3 SWAP2 POP POP JUMP JUMPDEST PUSH0 PUSH1 0x20 DUP3 DUP5 SUB SLT ISZERO PUSH2 0xEE6 JUMPI PUSH2 0xEE5 PUSH2 0xEA3 JUMP JUMPDEST JUMPDEST PUSH0 PUSH2 0xEF3 DUP5 DUP3 DUP6 ADD PUSH2 0xEBD JUMP JUMPDEST SWAP2 POP POP SWAP3 SWAP2 POP POP JUMP JUMPDEST PUSH2 0xF05 DUP2 PUSH2 0xE72 JUMP JUMPDEST DUP2 EQ PUSH2 0xF0F JUMPI PUSH0 DUP1 REVERT JUMPDEST POP JUMP JUMPDEST PUSH0 DUP2 CALLDATALOAD SWAP1 POP PUSH2 0xF20 DUP2 PUSH2 0xEFC JUMP JUMPDEST SWAP3 SWAP2 POP POP JUMP JUMPDEST PUSH0 PUSH1 0x20 DUP3 DUP5 SUB SLT ISZERO PUSH2 0xF3B JUMPI PUSH2 0xF3A PUSH2 0xEA3 JUMP JUMPDEST JUMPDEST PUSH0 PUSH2 0xF48 DUP5 DUP3 DUP6 ADD PUSH2 0xF12 JUMP JUMPDEST SWAP2 POP POP SWAP3 SWAP2 POP POP JUMP JUMPDEST PUSH0 DUP1 PUSH1 0x40 DUP4 DUP6 SUB SLT ISZERO PUSH2 0xF67 JUMPI PUSH2 0xF66 PUSH2 0xEA3 JUMP JUMPDEST JUMPDEST PUSH0 PUSH2 0xF74 DUP6 DUP3 DUP7 ADD PUSH2 0xF12 JUMP JUMPDEST SWAP3 POP POP PUSH1 0x20 PUSH2 0xF85 DUP6 DUP3 DUP7 ADD PUSH2 0xF12 JUMP JUMPDEST SWAP2 POP POP SWAP3 POP SWAP3 SWAP1 POP JUMP JUMPDEST PUSH32 0x4E487B7100000000000000000000000000000000000000000000000000000000 PUSH0 MSTORE PUSH1 0x11 PUSH1 0x4 MSTORE PUSH1 0x24 PUSH0 REVERT JUMPDEST PUSH0 PUSH2 0xFC6 DUP3 PUSH2 0xE72 JUMP JUMPDEST SWAP2 POP PUSH2 0xFD1 DUP4 PUSH2 0xE72 JUMP JUMPDEST SWAP3 POP DUP3 DUP3 MUL PUSH2 0xFDF DUP2 PUSH2 0xE72 JUMP JUMPDEST SWAP2 POP DUP3 DUP3 DIV DUP5 EQ DUP4 ISZERO OR PUSH2 0xFF6 JUMPI PUSH2 0xFF5 PUSH2 0xF8F JUMP JUMPDEST JUMPDEST POP SWAP3 SWAP2 POP POP JUMP JUMPDEST PUSH32 0x4E487B7100000000000000000000000000000000000000000000000000000000 PUSH0 MSTORE PUSH1 0x12 PUSH1 0x4 MSTORE PUSH1 0x24 PUSH0 REVERT JUMPDEST PUSH0 PUSH2 0x1034 DUP3 PUSH2 0xE72 JUMP JUMPDEST SWAP2 POP PUSH2 0x103F DUP4 PUSH2 0xE72 JUMP JUMPDEST SWAP3 POP DUP3 PUSH2 0x104F JUMPI PUSH2 0x104E PUSH2 0xFFD JUMP JUMPDEST JUMPDEST DUP3 DUP3 DIV SWAP1 POP SWAP3 SWAP2 POP POP JUMP JUMPDEST PUSH0 DUP3 DUP3 MSTORE PUSH1 0x20 DUP3 ADD SWAP1 POP SWAP3 SWAP2 POP POP JUMP JUMPDEST PUSH32 0x496E76616C696420746F6B656E20616464726573730000000000000000000000 PUSH0 DUP3 ADD MSTORE POP JUMP JUMPDEST PUSH0 PUSH2 0x109E PUSH1 0x15 DUP4 PUSH2 0x105A JUMP JUMPDEST SWAP2 POP PUSH2 0x10A9 DUP3 PUSH2 0x106A JUMP JUMPDEST PUSH1 0x20 DUP3 ADD SWAP1 POP SWAP2 SWAP1 POP JUMP JUMPDEST PUSH0 PUSH1 0x20 DUP3 ADD SWAP1 POP DUP2 DUP2 SUB PUSH0 DUP4 ADD MSTORE PUSH2 0x10CB DUP2 PUSH2 0x1092 JUMP JUMPDEST SWAP1 POP SWAP2 SWAP1 POP JUMP JUMPDEST PUSH32 0x496E73756666696369656E74206F757470757420616D6F756E74000000000000 PUSH0 DUP3 ADD MSTORE POP JUMP JUMPDEST PUSH0 PUSH2 0x1106 PUSH1 0x1A DUP4 PUSH2 0x105A JUMP JUMPDEST SWAP2 POP PUSH2 0x1111 DUP3 PUSH2 0x10D2 JUMP JUMPDEST PUSH1 0x20 DUP3 ADD SWAP1 POP SWAP2 SWAP1 POP JUMP JUMPDEST PUSH0 PUSH1 0x20 DUP3 ADD SWAP1 POP DUP2 DUP2 SUB PUSH0 DUP4 ADD MSTORE PUSH2 0x1133 DUP2 PUSH2 0x10FA JUMP JUMPDEST SWAP1 POP SWAP2 SWAP1 POP JUMP JUMPDEST PUSH0 PUSH1 0x60 DUP3 ADD SWAP1 POP PUSH2 0x114D PUSH0 DUP4 ADD DUP7 PUSH2 0xE4A JUMP JUMPDEST PUSH2 0x115A PUSH1 0x20 DUP4 ADD DUP6 PUSH2 0xE4A JUMP JUMPDEST PUSH2 0x1167 PUSH1 0x40 DUP4 ADD DUP5 PUSH2 0xE7B JUMP JUMPDEST SWAP5 SWAP4 POP POP POP POP JUMP JUMPDEST PUSH0 DUP2 ISZERO ISZERO SWAP1 POP SWAP2 SWAP1 POP JUMP JUMPDEST PUSH2 0x1183 DUP2 PUSH2 0x116F JUMP JUMPDEST DUP2 EQ PUSH2 0x118D JUMPI PUSH0 DUP1 REVERT JUMPDEST POP JUMP JUMPDEST PUSH0 DUP2 MLOAD SWAP1 POP PUSH2 0x119E DUP2 PUSH2 0x117A JUMP JUMPDEST SWAP3 SWAP2 POP POP JUMP JUMPDEST PUSH0 PUSH1 0x20 DUP3 DUP5 SUB SLT ISZERO PUSH2 0x11B9 JUMPI PUSH2 0x11B8 PUSH2 0xEA3 JUMP JUMPDEST JUMPDEST PUSH0 PUSH2 0x11C6 DUP5 DUP3 DUP6 ADD PUSH2 0x1190 JUMP JUMPDEST SWAP2 POP POP SWAP3 SWAP2 POP POP JUMP JUMPDEST PUSH0 PUSH1 0x40 DUP3 ADD SWAP1 POP PUSH2 0x11E2 PUSH0 DUP4 ADD DUP6 PUSH2 0xE4A JUMP JUMPDEST PUSH2 0x11EF PUSH1 0x20 DUP4 ADD DUP5 PUSH2 0xE7B JUMP JUMPDEST SWAP4 SWAP3 POP POP POP JUMP JUMPDEST PUSH0 PUSH2 0x1200 DUP3 PUSH2 0xE72 JUMP JUMPDEST SWAP2 POP PUSH2 0x120B DUP4 PUSH2 0xE72 JUMP JUMPDEST SWAP3 POP DUP3 DUP3 ADD SWAP1 POP DUP1 DUP3 GT ISZERO PUSH2 0x1223 JUMPI PUSH2 0x1222 PUSH2 0xF8F JUMP JUMPDEST JUMPDEST SWAP3 SWAP2 POP POP JUMP JUMPDEST PUSH0 PUSH2 0x1233 DUP3 PUSH2 0xE72 JUMP JUMPDEST SWAP2 POP PUSH2 0x123E DUP4 PUSH2 0xE72 JUMP JUMPDEST SWAP3 POP DUP3 DUP3 SUB SWAP1 POP DUP2 DUP2 GT ISZERO PUSH2 0x1256 JUMPI PUSH2 0x1255 PUSH2 0xF8F JUMP JUMPDEST JUMPDEST SWAP3 SWAP2 POP POP JUMP JUMPDEST PUSH0 PUSH1 0x40 DUP3 ADD SWAP1 POP PUSH2 0x126F PUSH0 DUP4 ADD DUP6 PUSH2 0xE7B JUMP JUMPDEST PUSH2 0x127C PUSH1 0x20 DUP4 ADD DUP5 PUSH2 0xE7B JUMP JUMPDEST SWAP4 SWAP3 POP POP POP JUMP JUMPDEST PUSH32 0x4E6F742074686520636F6E7472616374206F776E657200000000000000000000 PUSH0 DUP3 ADD MSTORE POP JUMP JUMPDEST PUSH0 PUSH2 0x12B7 PUSH1 0x16 DUP4 PUSH2 0x105A JUMP JUMPDEST SWAP2 POP PUSH2 0x12C2 DUP3 PUSH2 0x1283 JUMP JUMPDEST PUSH1 0x20 DUP3 ADD SWAP1 POP SWAP2 SWAP1 POP JUMP JUMPDEST PUSH0 PUSH1 0x20 DUP3 ADD SWAP1 POP DUP2 DUP2 SUB PUSH0 DUP4 ADD MSTORE PUSH2 0x12E4 DUP2 PUSH2 0x12AB JUMP JUMPDEST SWAP1 POP SWAP2 SWAP1 POP JUMP JUMPDEST PUSH32 0x496E73756666696369656E74206C697175696469747900000000000000000000 PUSH0 DUP3 ADD MSTORE POP JUMP JUMPDEST PUSH0 PUSH2 0x131F PUSH1 0x16 DUP4 PUSH2 0x105A JUMP JUMPDEST SWAP2 POP PUSH2 0x132A DUP3 PUSH2 0x12EB JUMP JUMPDEST PUSH1 0x20 DUP3 ADD SWAP1 POP SWAP2 SWAP1 POP JUMP JUMPDEST PUSH0 PUSH1 0x20 DUP3 ADD SWAP1 POP DUP2 DUP2 SUB PUSH0 DUP4 ADD MSTORE PUSH2 0x134C DUP2 PUSH2 0x1313 JUMP JUMPDEST SWAP1 POP SWAP2 SWAP1 POP JUMP JUMPDEST PUSH32 0x496E76616C696420726573657276657300000000000000000000000000000000 PUSH0 DUP3 ADD MSTORE POP JUMP JUMPDEST PUSH0 PUSH2 0x1387 PUSH1 0x10 DUP4 PUSH2 0x105A JUMP JUMPDEST SWAP2 POP PUSH2 0x1392 DUP3 PUSH2 0x1353 JUMP JUMPDEST PUSH1 0x20 DUP3 ADD SWAP1 POP SWAP2 SWAP1 POP JUMP JUMPDEST PUSH0 PUSH1 0x20 DUP3 ADD SWAP1 POP DUP2 DUP2 SUB PUSH0 DUP4 ADD MSTORE PUSH2 0x13B4 DUP2 PUSH2 0x137B JUMP JUMPDEST SWAP1 POP SWAP2 SWAP1 POP JUMP INVALID LOG2 PUSH5 0x6970667358 0x22 SLT KECCAK256 0x29 INVALID 0xAA CALLER ADDRESS SWAP12 PUSH1 0x95 SWAP10 0xC1 0xDE 0xAA DUP3 SWAP13 0x4D CALLDATALOAD 0x26 0xB9 0xC7 CREATE2 EXTCODEHASH PUSH17 0x194D785CD6E58D33B79364736F6C634300 ADDMOD BYTE STOP CALLER "
		},
		"gasEstimates": {
			"creation": {
				"codeDepositCost": "1021000",
				"executionCost": "infinite",
				"totalCost": "infinite"
			},
			"external": {
				"addLiquidity(uint256,uint256)": "infinite",
				"getPrice(address)": "infinite",
				"owner()": "2508",
				"removeLiquidity(uint256,uint256)": "infinite",
				"reserveA()": "2491",
				"reserveB()": "2448",
				"swapAforB(uint256)": "infinite",
				"swapBforA(uint256)": "infinite",
				"tokenA()": "2506",
				"tokenB()": "2575"
			},
			"internal": {
				"getAmountOut(uint256,uint256,uint256)": "infinite"
			}
		},
		"methodIdentifiers": {
			"addLiquidity(uint256,uint256)": "9cd441da",
			"getPrice(address)": "41976e09",
			"owner()": "8da5cb5b",
			"removeLiquidity(uint256,uint256)": "9d7de6b3",
			"reserveA()": "dc5fa6c5",
			"reserveB()": "19e36f3b",
			"swapAforB(uint256)": "e4f1f70a",
			"swapBforA(uint256)": "8014a7aa",
			"tokenA()": "0fc63d10",
			"tokenB()": "5f64b55b"
		}
	},
	"abi": [
		{
			"inputs": [
				{
					"internalType": "address",
					"name": "_tokenA",
					"type": "address"
				},
				{
					"internalType": "address",
					"name": "_tokenB",
					"type": "address"
				}
			],
			"stateMutability": "nonpayable",
			"type": "constructor"
		},
		{
			"anonymous": false,
			"inputs": [
				{
					"indexed": true,
					"internalType": "address",
					"name": "provider",
					"type": "address"
				},
				{
					"indexed": false,
					"internalType": "uint256",
					"name": "amountA",
					"type": "uint256"
				},
				{
					"indexed": false,
					"internalType": "uint256",
					"name": "amountB",
					"type": "uint256"
				}
			],
			"name": "LiquidityAdded",
			"type": "event"
		},
		{
			"anonymous": false,
			"inputs": [
				{
					"indexed": true,
					"internalType": "address",
					"name": "provider",
					"type": "address"
				},
				{
					"indexed": false,
					"internalType": "uint256",
					"name": "amountA",
					"type": "uint256"
				},
				{
					"indexed": false,
					"internalType": "uint256",
					"name": "amountB",
					"type": "uint256"
				}
			],
			"name": "LiquidityRemoved",
			"type": "event"
		},
		{
			"anonymous": false,
			"inputs": [
				{
					"indexed": true,
					"internalType": "address",
					"name": "swapper",
					"type": "address"
				},
				{
					"indexed": true,
					"internalType": "address",
					"name": "fromToken",
					"type": "address"
				},
				{
					"indexed": true,
					"internalType": "address",
					"name": "toToken",
					"type": "address"
				},
				{
					"indexed": false,
					"internalType": "uint256",
					"name": "inputAmount",
					"type": "uint256"
				},
				{
					"indexed": false,
					"internalType": "uint256",
					"name": "outputAmount",
					"type": "uint256"
				}
			],
			"name": "TokensSwapped",
			"type": "event"
		},
		{
			"inputs": [
				{
					"internalType": "uint256",
					"name": "amountA",
					"type": "uint256"
				},
				{
					"internalType": "uint256",
					"name": "amountB",
					"type": "uint256"
				}
			],
			"name": "addLiquidity",
			"outputs": [],
			"stateMutability": "nonpayable",
			"type": "function"
		},
		{
			"inputs": [
				{
					"internalType": "address",
					"name": "_token",
					"type": "address"
				}
			],
			"name": "getPrice",
			"outputs": [
				{
					"internalType": "uint256",
					"name": "",
					"type": "uint256"
				}
			],
			"stateMutability": "view",
			"type": "function"
		},
		{
			"inputs": [],
			"name": "owner",
			"outputs": [
				{
					"internalType": "address",
					"name": "",
					"type": "address"
				}
			],
			"stateMutability": "view",
			"type": "function"
		},
		{
			"inputs": [
				{
					"internalType": "uint256",
					"name": "amountA",
					"type": "uint256"
				},
				{
					"internalType": "uint256",
					"name": "amountB",
					"type": "uint256"
				}
			],
			"name": "removeLiquidity",
			"outputs": [],
			"stateMutability": "nonpayable",
			"type": "function"
		},
		{
			"inputs": [],
			"name": "reserveA",
			"outputs": [
				{
					"internalType": "uint256",
					"name": "",
					"type": "uint256"
				}
			],
			"stateMutability": "view",
			"type": "function"
		},
		{
			"inputs": [],
			"name": "reserveB",
			"outputs": [
				{
					"internalType": "uint256",
					"name": "",
					"type": "uint256"
				}
			],
			"stateMutability": "view",
			"type": "function"
		},
		{
			"inputs": [
				{
					"internalType": "uint256",
					"name": "amountAIn",
					"type": "uint256"
				}
			],
			"name": "swapAforB",
			"outputs": [],
			"stateMutability": "nonpayable",
			"type": "function"
		},
		{
			"inputs": [
				{
					"internalType": "uint256",
					"name": "amountBIn",
					"type": "uint256"
				}
			],
			"name": "swapBforA",
			"outputs": [],
			"stateMutability": "nonpayable",
			"type": "function"
		},
		{
			"inputs": [],
			"name": "tokenA",
			"outputs": [
				{
					"internalType": "address",
					"name": "",
					"type": "address"
				}
			],
			"stateMutability": "view",
			"type": "function"
		},
		{
			"inputs": [],
			"name": "tokenB",
			"outputs": [
				{
					"internalType": "address",
					"name": "",
					"type": "address"
				}
			],
			"stateMutability": "view",
			"type": "function"
		}
	]
}